:10000000685D0020810600007D060000DD10000014
:1000100000000000000000000000000000000000E0
:10002000000000000000000000000000FD100000C3
:100030000000000000000000E11200002513000095
:100040007D0600007D0600007D060000212C0000DA
:100050007D06000000000000710800007D06000021
:100060007D0600002D0900007D06000069060000E5
:100070002503000000000000000000000000000058
:10008000000000007D0600007D0600007D060000E7
:100090007D0600007D0600007D0600007D06000054
:1000A0007D0600007D060000000000007D060000C7
:1000B00000000000000000007D06000010B5064CA6
:1000C0002378002B07D1054B002B02D0044800E019
:1000D00000BF0123237010BD380100200000000084
:1000E000C83A0000084B10B5002B03D00749084858
:1000F00000E000BF07480368002B00D110BD064B8D
:10010000002BFBD09847F9E7000000003C010020DD
:10011000C83A0000C83A00000000000010B5031EF5
:1001200004D00022130094B2A14201D8180010BDDF
:10013000845C01321B19DBB2F5E70000F0B52B4BF4
:100140002B4C87B023606B460421E3600022294BCF
:100150000520218298470F2302AD2381264BA06101
:10016000656098476061254B32209847244B1A6898
:10017000002AF8D000220A201A6022490C32224BB1
:100180006844984755232B706B780F2101336B70AF
:1001900000232800AB731D4B98470123A8735B42D3
:1001A0000F22290020001A4EB047A0690028DAD09B
:1001B00001AF96223900174B984706000128D2D18B
:1001C000BB780A48144FCC2B05D1144B984700211B
:1001D0003000B847C7E7EE2B03D1104B98473100EA
:1001E000F6E70F4B984731000020F2E704000020AB
:1001F000AC3C0020DD16000055210000F11E00007F
:1002000054010020C83C0020A13800001D0100005E
:100210002D0E00006519000019090000ED0D000009
:100220000D0E0000F0B5224B224C8BB0236004234E
:1002300001AD2381204B656098470F21606102AEBC
:10024000002201201D4BE66021829847A061A06931
:1002500000280CD0962206A9194B98470128F6D100
:100260000E213000174FB847B37B834202D0164BA4
:100270009847ECE70A20154B6844984733782B7071
:100280000023EB7073786B70114B9847CC230128D7
:1002900000D0EE2304212800AB70B8470123E8709A
:1002A0005B420422290020000A4FB847CFE7C0462E
:1002B00004000020AC3C002055210000DD160000A9
:1002C000651900001D010000AD040000DD04000000
:1002D000610300002D0E000073B50C4B05000C48A7
:1002E00098470C4904000C4E002D08D00222002330
:1002F0000A48009201933E32B047204076BD022367
:100300000195009340222B000548F5E73D0C0000C5
:1003100004000020C23800007D1B00003D010000E9
:100320002502000010B50248024B984710BDC04698
:10033000AC3C0020950E0000024A13780133137084
:100340007047C0465801002000220120024B03499B
:100350005A7008605A607047580100200000002061
:1003600010B5034B0020984701384342584110BD57
:100370003929000003000C330278002A04D101302F
:100380009842F9D1012070470020FCE7002310B506
:10039000C45CCA5C944204D101330C2BF8D1002018
:1003A00010BD0120FCE70000F8B50E220021304B03
:1003B000304898470E20304B9847002501273B00D6
:1003C000AB402E4CDBB2637323730E22002321005B
:1003D0002B482C4EB047013564202B4B9847062DF7
:1003E000EDD1FF27294EB04742424241284B9A6047
:1003F0005A68002A22D000281CD01E4B67735F73F6
:10040000244B254D1B68002B02D1B04700281AD180
:100410000E20194B984700230E2216491848194EF2
:10042000B0470E22210028001C4B98471920164B7C
:100430009847D7E701221B781342DED100230D4AEB
:1004400063735373DCE72000154B9847061EDFD11A
:1004500029002000134B9847002805D033000E22B6
:1004600021000748074EB0470E200F4B9847D8E7AA
:10047000B3380000E63C00209B280000F43C00203C
:100480006C000020290B0000F11E00006103000039
:100490005801002000000020D83C0020A1380000B6
:1004A000750300008D03000083280000012210B5B1
:1004B000054B0E201A60054B98470E230022044975
:1004C000044C0548A04710BD000000209B280000F8
:1004D000E63C00204D090000300000200023F7B565
:1004E000190001250526184CC75CDAB2E7542A42E8
:1004F0000CD1C75C002F03D1C7187F78002F05D01F
:100500002F005208B21A97403943C9B201330C2B5D
:10051000EAD121730D4C6378042B02D80133637048
:10052000F7BD0B4B1D680B4B984701235B42020044
:100530000093280000230221074DA8470022074B03
:100540001A6001236360EBE7F43C002058010020AF
:10055000043D0020611D0000712400000000002007
:1005600073B52F482F4B020032CB32C232CB32C28E
:100570001B6813602C4B98472C4B05000E209847A6
:100580002B4C02210E20A04701210800A047012189
:10059000284E0800B04701210020A047022100207A
:1005A000B0478223DB051900402448310A784B33D9
:1005B00022430A704A78204E22434A708A781F48A4
:1005C00022438A701A78962122431A701C4B00939A
:1005D00000231A00B047C8211A4B012218601A4B99
:1005E0004900009319480023B047194B06001860D2
:1005F000184B984701235B4202000093012100231E
:100600003000154EB04700230122054000920193AF
:1006100022001249124C1348A047284076BDC0461C
:100620006C000020DC000020090A00009B2800006C
:100630008D270000B52800001D240000C8380000E8
:1006400049030000043D002039030000D5380000B4
:10065000D43C0020611D000071240000DE38000041
:100660007D1B0000A903000010B50248024B98470B
:1006700010BDC0466C000020A50B0000FEE7000086
:100680000F48104970B5884204D000230E4CCA1898
:10069000A2420ED300210D4B0D4A93420DD3FF21F0
:1006A0000C4B0D4A8B4393600C4B98470C4B98476F
:1006B000FEE7C55804331560E9E702C3EDE7C0461D
:1006C000C83A000000000020380100203801002056
:1006D000683D00200000000000ED00E059380000F7
:1006E000E90800002023024A11690B431361704797
:1006F0000008004010B5034B984703490348044BDA
:10070000984710BDE506000000400041083D00206C
:100710005D07000010B5024B9847024B984710BD8B
:1007200081070000F5060000EFF31083036072B646
:10073000BFF35F8F7047BFF35F8F036883F3108849
:100740007047436910B5002B00D0984710BD8369EE
:1007500010B5002B00D0984710BD000010B5054B18
:1007600004009847002803D1034B2360034B6360C8
:1007700010BDC0463D080000430700004F070000C1
:1007800010B5084B5A685A60074B9847074B984773
:10079000074B9847074B9847FF20074B9847074B55
:1007A000984710BD00400041A1080000B9080000B2
:1007B00031080000E5080000F9070000C10700004B
:1007C00090220221D20513788B431370704713B522
:1007D000EFF31083019372B690230124DB051A789E
:1007E000A2431A709860D9601A79D207FCD41869AC
:1007F000019B83F3108816BDC30709D4030606D5F1
:10080000074A084BDA63084A59681142FCD170471D
:10081000064A044B1A62044A59681142FCD1EDE7BA
:1008200003012000001C0040FD070000060101003C
:100830000122014B1A717047000800409E2201619D
:100840004B6813404B60084B5E3A1860074B191D0C
:10085000CA67BFF34F8FBFF36F8FC02149005A5053
:1008600000201A607047C0469C01002000E100E0B3
:1008700001210A4B10B5186803691A7D0A4204D099
:100880000368002B00D0984710BD1A7D52080A4219
:10089000FAD002221A754368F3E7C0469C01002093
:1008A000F821044B4901DA690A40DA6101221A6130
:1008B0007047C046001400400222094B1A75013AE5
:1008C0005A75033299691142FCD104229969114287
:1008D000FCD107229A750932D9681142FCD07047C1
:1008E000001000407047000010B5064B9847064BBB
:1008F0009847064B00209847054B9847054B98476B
:10090000002010BD4109000061050000D90200006F
:10091000E11C0000352D0000024B5860024B1960AD
:100920007047C046A00100203001002010B50248E9
:10093000024B984710BDC04664010020A50B000083
:1009400010B5014B984710BD15070000F0B589B0F0
:10095000059301910292031E24D00023427C9A4207
:1009600020D00368C768049383680693436807939D
:10097000029B002B05D038001F4B984738001F4BB7
:100980009847059B5C1E059BE4B29C420DD3019ADF
:100990000123002A06D03800184B9847164B380020
:1009A00098470123180009B0F0BDFF230393019B72
:1009B000002B01D01B5D039307260025039901231B
:1009C0003141079819400E4B98470E4B06989847AF
:1009D0006D00EDB20543094B0498013E9847F6B20D
:1009E0000498054BEDB29847FF2EE7D1029B002BF0
:1009F00000D01D55013CC6E79B280000832800005D
:100A00005928000071290000F8B50500046800218C
:100A10002000374B9847374B2868984769696868C2
:100A2000354EB0476969A868B0476969E868B0475A
:100A300028690221314B984701212869304B98479A
:100A4000304F6868B8470600E868B8472E4B010089
:100A50003000984703263040236802042B48184092
:100A600010432060A868B847294B98473040236856
:100A700002052848023E184010431C2220602368CB
:100A8000254993431A000C23134323602368234A08
:100A90001340072223606368934363606A7F23687F
:100AA00032400B4092071343236063681C4A134093
:100AB0006360A8691B4B98478023207322685B05FD
:100AC00013432360802322689B0513432360802304
:100AD00062689B0213436360022322683000134361
:100AE00023600023AE77EB622B622B636B62F8BD51
:100AF000B12B0000C52A0000092700008D27000047
:100B000019280000790F0000C50F0000FFFFFCFF4F
:100B1000A90F0000FFFFCFFFFFFFFFBFFFFFFFF0A8
:100B2000FFDFFFFF4D100000F7B504000191160034
:100B30001F00002828D0837F002B21D0019B217F1C
:100B400023620023E362236363624B4259412069BD
:100B5000C9B2104BA66267632568984720680E4BA0
:100B600098470E4B20689847226A636A002A0CD186
:100B70005A1C6262AB620523AB75013B2B7503E027
:100B8000074B98470028D9D1F7BD591C6162D35C47
:100B9000F0E7C04619280000ED2C0000CD2C000025
:100BA000090A000070B50400042605682B7E5B0767
:100BB00010D42B7EDB072DD5AB7DDB072AD5636AEE
:100BC000A26A934222D2226A591C6162002A1BD176
:100BD000AB62EEE7236BA26A9342E7D2E16A5A1C4A
:100BE00000290ED02263AA6ACA54236BA26A9342D8
:100BF000DCD3606B0028D9D000210E4B98472E75AE
:100C0000D4E7AB6A2263D1E7D35CE1E701232B751C
:100C1000DB18AB752B7E9B070AD5217F2069013934
:100C20004A424A41044BD1B2984702232B762B7596
:100C300070BDC0468922000019280000F7B5051EC6
:100C400001D10020FEBD0468002CFAD02000564BD4
:100C5000984728680021554B9847A868431CF0D056
:100C60006B680133EDD0EB680133EAD002222368D0
:100C70004F4F93432360B8470028E2D1E868B84754
:100C800001900228DDD1C02322689B021343236018
:100C90002969A868474EB047474B0121A868984783
:100CA0002969E868B0476868B847444B9847002806
:100CB000C7DB032223681040414A00051340184354
:100CC000206029696868B047012168683A4B9847F5
:100CD0008023042662689B0213436360A675019912
:100CE0006869384B9847384BE86998476B1CA08176
:100CF000D87F364B9847012738402368820734480D
:100D00001840104320602368324A13402360802338
:100D100022685B0013432360AB1CD87F2E4B98479F
:100D20000F22236802402D481206184010431C224F
:100D30002060236893431E432660AB1CD87F284B5A
:100D400098474021384063684203264818401043C2
:100D50006060EB1CDA7F63683A408B431F009201AE
:100D60001743072267602B1DD97F636811409343A7
:100D70000B4363606B1DD97FA368114093430B4302
:100D8000A360AB6A002B02D02868174B9847237EDC
:100D90005B0707D48023A37522687E3B134323603F
:100DA00001204FE7238DF2E7C52A0000B12B000098
:100DB000790F000009270000B52800008D0F000002
:100DC000FFFFCFFF8D2700000D1000006510000011
:100DD000FFFFFFBFFFFFFFEF6F100000FFFFFFF0FF
:100DE0007B100000FFDFFFFFCD2C000010B50028B6
:100DF00005D083694069002B02D0024B984710BD93
:100E0000014BFBE79B2800008328000010B5002859
:100E100005D083694069002B02D0024B984710BD72
:100E2000014BFBE7832800009B280000F8B5050074
:100E30000F001E00002825D00368181E22D01C6851
:100E40002A8101226A8180226960616852020A4314
:100E500001216260586849420C4B98472B68043363
:100E6000DA7F3B78012A0ED1FF321343238500221B
:100E700002230125237611003300A5751000044ECE
:100E8000B0472575F8BD9BB2F0E7C04609270000C2
:100E900005220000F8B5041E43D00368002B40D0A3
:100EA000FF2280211D682B7EDB093BD18026760046
:100EB00000202B7E5B0738D42B7EDB0714D5AB7D5F
:100EC000DB0711D563892289934206D26168002924
:100ED00003D0581C6081CB5C2B856389934203D37C
:100EE00001232B75DB18AB752B7E9B0719D5AB7DCA
:100EF0009B0716D502232A7E13432B76628923890A
:100F00009A420ED301232B756B68174A13406B600E
:100F1000236819695868154B984700216069144B7C
:100F20009847F8BD6A832976BDE72B8D9BB2334283
:100F300000D06082628A218A914205D9E168002945
:100F400002D0571C67828B54628A238A9A42B0D19E
:100F5000A069002804D00023E1681A00054FB847B3
:100F6000638A01336382A3E7FFFFFEFF09270000C6
:100F7000892200009D1800001F2802D8024B185635
:100F8000704701204042FBE7E6380000C3B2032B64
:100F900005D804480130C018C07F40B27047012016
:100FA0004042FBE7E6380000C3B2032B05D80448F3
:100FB0000130C018C07F40B2704701204042FBE7BB
:100FC000E6380000013000B504281BD801F0B8FE57
:100FD00011051A030F00012000BD00200129FBD0DC
:100FE0000339481E8141484203210843F4E70220A7
:100FF000F2E700200129EFD00339481E8141484221
:101000000121F2E701204042E6E7000010B5094B5C
:1010100098479321084BC90598470849084B9847BA
:10102000011C8F20074BC0059847074B984780B29B
:1010300010BDC046CD35000015300000001BB74B79
:10104000852D000055320000552D000010B54100DF
:10105000024B034898470138C0B210BDCF070000CB
:1010600000366E01013843425841C0B27047012238
:10107000002382425B4118007047013843425841C7
:101080007047000010B5014B984710BD112D0000AE
:1010900010B5014B984710BD112D000000B5036835
:1010A00089B000934368019383680293C3680393F4
:1010B000036904934369059383690693C36907939E
:1010C000009B019B029B039B049B059B069B079B2C
:1010D000014B984709B000BD112D00000420714656
:1010E000084203D0EFF3098003490847EFF3088073
:1010F00001490847704700009D100000FEE703000B
:10110000012208334360C3600361002352428260BE
:101110000360704700230361704743689A684B601F
:101120008A609A68516099600368086101330360BE
:10113000704703000A6830B50833541C0BD10369AB
:101140005A684A6091608B60596003680861013396
:10115000036030BD23005C682568AA42FAD2EFE73D
:101160004168826803698A60826851605968884270
:1011700000D15A60002202611A68013A1A601868A8
:1011800070470000000000000000000000000000A8
:101190000B4A13681868203080F30988022080F316
:1011A0001488BFF36F8F3FBCAE4608BC04BC62B668
:1011B0001847C046C046C046C046C046C046C046A6
:1011C000CC3B0020002307B50193064B1B6801337D
:1011D00003D07C210448054B984772B6019B002B35
:1011E000FCD007BD340100200E3900009110000032
:1011F00010B58024031F64041C60043B196003497C
:10120000043B1960143B40381A6010BDC511000042
:10121000FF220F4B1204196810B50A431A60FF220F
:101220000024196812060A431A600A4B0A4A1C6015
:101230000A4914600A4A116007221A60094B1C60AF
:10124000094B9847094B9847094B9847200010BD18
:1012500020ED00E010E000E018E000E0BF5D0000DD
:1012600014E000E03401002091110000411F000053
:10127000C51100008022044B52051A60BFF34F8F46
:10128000BFF36F8F7047C04604ED00E072B6044AAA
:10129000136801331360BFF34F8FBFF36F8F704735
:1012A0003401002010B5074C2368002B03D1EC213A
:1012B0000548064B98472368013B2360002B00D16B
:1012C00062B610BD340100200E39000091100000FC
:1012D000EFF3108072B6704780F3108870470000FB
:1012E000EFF309800E4B1A6820381060F0C04446B6
:1012F0004D4656465F46F0C008B572B600F020FE77
:1013000062B60CBC116808681030F0C8A046A94647
:10131000B246BB4680F309882038F0C81847C0465B
:10132000CC3B002010B5074B9847074B040098476B
:10133000002803D08022054B52051A602000044B80
:10134000984710BDD11200006D1D000004ED00E0B3
:10135000D91200000F4B30B51D001A68824217D316
:101360005C681919884203D141681800091959604D
:1013700041684418A24206D1AC68A24203D0546826
:101380001268611841600260984200D0186030BD58
:101390001300E2E7A8010020F7B53F4B040098478F
:1013A0003E4A3F4E9368002B1CD1110007330C318D
:1013B000194267D01100133199433A4BD3185B1A85
:1013C00007250020CB18083BAB43506011605860E4
:1013D00018609360581A0B6080231B064860F06009
:1013E00030617361002773692340BB423BD11F000A
:1013F000002C38D0072308341C4201D09C43083409
:101400000027BC422FD033699C422CD811001568AC
:101410006B689C4239D892680027954223D00F68A8
:101420002A6808370A601B1B102B0FD92B19019350
:101430005B0703D0C2211C481C4B98476B682A19D4
:101440001B1B536001986C60194B984733696A689D
:10145000F1689B1A33618B4200D2F36073691343C6
:101460006B6000232B60134B9847002F01D1124B68
:1014700098477B0704D081210B4849000B4B9847C4
:101480003800FEBDE8239B019AE728680028C2D0F7
:1014900029000500BCE7C046511D0000A80100203E
:1014A000A83B00200C3A00004339000091100000D6
:1014B00055130000251E00008510000070B500289F
:1014C00027D0144D08386B6942680400134204D1D8
:1014D0008B2111484900114B98472368002B04D0F9
:1014E00018210D48FF310D4B984763686A691A420D
:1014F0000FD0216800290CD193436360084B9847B3
:101500002A69636820009B182B61064B9847064B9D
:10151000984770BDA83B002043390000911000009F
:10152000511D000055130000251E000010B50400D9
:10153000034B9847A46B034B98476042604110BD32
:101540008D120000A512000070B51600026C040098
:10155000856B002A0AD106681000002E03D160684E
:10156000154B984766600135A56370BD134B002E7F
:101570000CD180689847A368226C30009B18626881
:10158000A3609342EFD32368A360ECE7C068984759
:10159000236CE2685B422168D218E2608A4202D280
:1015A0006268D318E3600020022EDCD12B005A1EA3
:1015B0009341ED1AD7E7C04679210000A138000019
:1015C00003001A6C10B50800002A0AD0D9685C68BC
:1015D0008918D960A14201D31968D960D968014B33
:1015E000984710BDA1380000F8B505002E00184F2F
:1015F0004536B847347864B2002C0EDCFF233370D4
:10160000144EB047B8472F0044373C7864B2002CE2
:1016100010DCFF233B70B047F8BD6B6A002BEDD0A8
:1016200028000D4B24309847002801D00B4B9847D9
:10163000013CE0E72B69002BEBD02800064B103073
:101640009847002801D0054B9847013CDEE7C0468B
:101650008D120000A5120000352000004921000075
:1016600070B504000D00002804D1842115484900FC
:10167000154B9847154B9847216CE36B22684B43F9
:10168000D0185B1AD318E36023006060A2600020CA
:10169000FF224433A0631A705A7085420AD123692D
:1016A000834203D020000A4B10309847094B9847DB
:1016B000012070BD2000084D1030A84720002430C4
:1016C000A847F3E776390000911000008D12000062
:1016D00035200000A5120000FF10000070B50600C4
:1016E0000D00002804D172210C48FF310C4B9847A3
:1016F000280070430B4B48309847041E08D0002D3B
:1017000008D12060E663256401212000064B98473C
:10171000200070BD030048330360F3E77639000012
:10172000911000009913000061160000F0B589B017
:10173000041E02910592019303D146494648474B46
:101740009847029B002B03D1236C002B00D076E03E
:10175000019B022B03D1E36B012B00D074E0404BC3
:101760009847002806D1059B002B03D03D493A48F5
:101770003A4B9847002740E0059D002D02D1B04725
:10178000002052E0002F02D106A8374B9847B047FF
:10179000364B9847364B98472200443213785BB259
:1017A000013301D1002313702200453213785BB25C
:1017B000013301D100231370B04705A906A82D4BB2
:1017C00098472D4F2D4D002835D1294B9847A36BB5
:1017D0000393E36B0493B047039B049A934226D18F
:1017E000200005991030264B98472000B847A8479D
:1017F000002801D1234B984701271D4B9847A36B25
:10180000E26B214E934202D3019B022BB4D11F4BBA
:10181000019A029920009847636A002B03D02000A8
:101820001B4B24309847B047012009B0F0BD200081
:10183000B847A847E0E72000B847A847A0E7154900
:101840000548064B984783E713490348034B9847DD
:1018500085E7C046C50200007639000091100000FF
:1018600061210000CA020000B1200000511D0000EB
:101870008D120000C9200000E9150000251E00009F
:10188000AD1F000075120000A512000049150000F0
:1018900035200000C6020000C7020000F0B585B088
:1018A0000400019117001E00002803D12449254897
:1018B000254B9847019B002B02D1236C002B34D180
:1018C000022E02D1E36B012B34D1204B9847A36B3E
:1018D000E26B0390934202D30025022E1AD123001B
:1018E000453302931D7832006DB2194B01992000E7
:1018F00098476B1C14D1636A002B01D1012509E0C4
:101900002000144B243098470028F7D0002FF5D042
:1019100001253D600398104B9847280005B0F0BDA5
:101920000135029B6DB21D70E8E70C490548064B76
:101930009847C5E70A490348034B9847C5E7C0469F
:10194000650300007639000091100000D1120000FC
:101950004915000035200000D91200006603000080
:1019600067030000F0B587B0041E0291039204D112
:101970008C213E48C9003E4B9847029B002B03D167
:10198000236C002B00D06BE03A4B9847002806D11F
:10199000039B002B03D038493448354B984700232C
:1019A0003AE0039D002D02D1B84700204AE0019B98
:1019B000002B02D104A8314B9847B847304B9847C9
:1019C000B0472200443213785BB2013301D10023C7
:1019D00013702200453213785BB2013301D100232A
:1019E0001370B84703A904A8264B9847264F274DE4
:1019F000274E00282CD12000B847002824D02000F2
:101A000003992430234B98472000A847B04700286B
:101A100001D1214B98470123204E0193B047A56B7C
:101A20001F4F002DBDD01F4B02992000013D98474C
:101A3000A5632369002B03D020001B4B103098476F
:101A4000B847012007B0F0BD2000A847B047E2E743
:101A50002000A847B0472000B8470028DBD0A4E703
:101A600012490248024B98478EE7C046763900007B
:101A7000911000006121000069040000B120000005
:101A8000511D0000C92000002D150000E9150000BF
:101A9000251E0000AD1F0000751200008D12000011
:101AA000A5120000C11500003520000064040000EC
:101AB00070B50400114B16000D0098472200443207
:101AC00013785BB2013301D1002313702200453239
:101AD00013785BB2013301D100231370084B984790
:101AE000A36B002B05D12000320029002430054BC8
:101AF00098472000044B984770BDC0468D120000E7
:101B0000A5120000ED1F0000E915000010B5014B03
:101B10009847FCE775120000064B1A681268002A05
:101B200002D1013A5A6070471A68D268D268526886
:101B3000F8E7C046C03B002070B505000C4C0D4BCB
:101B4000A668E068751904309847E3685D600A4B41
:101B5000AE4204D92069E1680431984770BD20681D
:101B6000E1680431984763689D42F7D26560F5E704
:101B7000C03B00206111000033110000F0B594005B
:101B800085B002904A4F200000910393B847051E8C
:101B900000D17FE05420B847061E00D177E007232C
:101BA000043C05632D199D4300230195009AD15CE7
:101BB0001A003432B154009AD25C002A02D00133A8
:101BC000042BF3D1330000240A9F37331C70022FFB
:101BD00000D90227331D1800F762B763354DF4634F
:101BE0000093A84730001830A8470323DF1B3300B9
:101BF00050333661B761766234647464B464F464FB
:101C0000039A1C7002992C4B019898470B9B3060EB
:101C1000002B00D01E60294B9847294C294D636941
:101C200001336361E368002B37D1E6606369012B00
:101C300014D12000244F1830B84720002C30B8476A
:101C400020004030B8472148B8472148B847200015
:101C50007C30B8471D4B23601D4B23616B69F26AD2
:101C600001336B61AB699A4200D9AA611423200049
:101C700053431830C0180099164B9847164B984795
:101C80002B690120002B00D0E36805B0F0BD2800CF
:101C9000124B984701204042F7E72B69002BDDD11A
:101CA000E368F26ADB6A9342D8D8E660D6E7C046BA
:101CB0009913000015110000F11100008D120000B1
:101CC000C03B0020403C0020FF100000143C0020DE
:101CD000283C00201B110000A5120000BD140000CC
:101CE00073B5114D00242B001C3301930094230085
:101CF00040220E490E480F4EB04701280DD10E4B21
:101D00009847012809D172B601220C4B52425A6001
:101D100028619C600A4B984773BD431CFCD109495C
:101D200009480A4B9847F7E7403C002097390000E4
:101D30000D1B00007D1B0000CD230000C03B0020D8
:101D400011120000570700009C390000911000009C
:101D5000024A136A013313627047C046403C0020B8
:101D6000014B98687047C046C03B0020F7B5254D31
:101D70002B6A002B21D1244CA7680137A760002FC4
:101D800010D123681B68002B03D020492048214B29
:101D9000984723682269226023616B6A01336B6272
:101DA0001D4B984763689F420AD323681B68002B2A
:101DB00008D101235B42636002E0AB6A0133AB628E
:101DC0000020FEBD2368DB68DE6873689F42F2D3A3
:101DD000331D01931800114B9847B36A002B03D0B1
:101DE00030000E4B18309847F36AAA69934200D925
:101DF000AB611422200053431830C0180199084BDE
:101E00009847D2E7403C0020C03B00207E090000FC
:101E10009C39000091100000191B000061110000A6
:101E20001B110000F7B5274C236A002B03D126496C
:101E30002648274B9847274B9847236A013B236244
:101E4000256A002D18D1244E7369002B14D0F36F2E
:101E5000002B15D1002D01D0204B9847A56A002DED
:101E600009D001261E4B9847002800D0E662013DAC
:101E7000002DF7D1A562E36A1A4B98470020FEBDFA
:101E8000330088331B68184FDD6828001830B847C6
:101E90002B1D18000193B847EB6AA269934200D941
:101EA000A3611422300053431830C018291D0F4B72
:101EB0009847F368EA6ADB6A9A42C8D30123E3626F
:101EC000C5E7C046403C0020B20700009C39000036
:101ED000911000008D120000C03B0020191B000073
:101EE0006D1D0000A5120000611100001B11000013
:101EF00010B5041E02D10A4B984710BD094B1B6A4E
:101F0000002B03D008490948094B9847094B9847CB
:101F1000094B20009847094B98470028EDD1EAE784
:101F200075120000403C0020E70400009C390000CE
:101F300091100000511D0000391B0000251E0000FB
:101F400070B5154D2B6A002B02D00123EB6270BDDA
:101F50001426EB62AC6933006343104AD1188869D8
:101F6000002810D00B00C86920334068C86198422F
:101F700001D14368CB6114236343D318DB69DB6869
:101F8000D360AC61E3E7002C03D105490548064B5B
:101F90009847013CDFE7C046403C0020C03B0020A2
:101FA0006F0A00009C3900009110000070B5040019
:101FB0000D00002803D107490748084B9847084BF4
:101FC0002000D968074B183198472800064B9847DE
:101FD00070BDC0467F0A00009C39000091100000CF
:101FE000C03B002033110000391B000070B5050014
:101FF0000C001600002803D108490948094B9847EE
:10200000094B2800D968094B18319847002E01D098
:10201000012464422000064B984770BDAB0A0000C3
:102020009C39000091100000C03B00201B110000F3
:10203000391B0000F8B5C368DC68002C03D11549D2
:102040001548164B984727001837154B3800984706
:10205000144D154E2B6A002B19D1271D104B38003B
:102060009847E26AAB699A4200D9AA61142330000A
:1020700053431830C0180D4B39009847F368E26A93
:10208000DB6A00209A4201D90130E862F8BD3000D5
:102090007C30F0E7D90A00009C3900009110000064
:1020A00061110000403C0020C03B00201B110000DB
:1020B000034B5B6A0360034B9B6843607047C046F9
:1020C000403C0020C03B002070B505000C000028FB
:1020D00003D114491448154B9847002C03D11449D7
:1020E0001148124B9847134B9847134B13499B6861
:1020F0002868496A6A68884202D00126934209D258
:102100009B1A2268934209D2D31A236028000C4BF1
:10211000984700260B4B9847300070BD00230126DE
:102120002360F7E73D0B00009C3900009110000090
:102130003E0B00008D120000C03B0020403C002000
:10214000B1200000A51200000122014BDA627047A5
:10215000403C0020014BD8687047C046C03B00207F
:10216000044B01201A69002A03D0186A43425841DF
:1021700040007047403C002070B5041E01D1002093
:1021800070BD184DEB68984203D017491748184B9B
:102190009847E36B002B03D116491448144B98471A
:1021A000E36BE26AA16B013BE3638A42E7D0002B59
:1021B000E5D1261D104B300098470322A36BD21A9D
:1021C000A2610E4AE36291698B4200D993612800B3
:1021D00014256B431830C0183100094B9847012073
:1021E000CEE7C046C03B0020090E00009C3900002D
:1021F000911000000A0E000061110000403C002018
:102200001B110000F7B51B4E1F0000900191150037
:10221000B047194CE36850331B78022B0FD0E268AB
:102220000099D36C8B43D3640122E36850331A7056
:10223000002F04D0114B38009847114B9847114F8D
:10224000B847B047002D02D0E368DB6C2B60E36831
:10225000002550331B78022B05D1E2680199D36C1D
:1022600001358B43D3640022E36850331A70B847BA
:102270002800FEBD8D120000C03B0020391B00006D
:1022800075120000A5120000F7B504000F00002829
:1022900003D121492148224B9847224B98472300DC
:1022A0000221503300901A781970E36C0133E36413
:1022B000012A26D1A36A002B03D01B491748184BCB
:1022C00098471A4D1A4E2B6A002B1ED1231D0193DD
:1022D0001800184B9847E26AAB699A4200D9AA6184
:1022E0001423300053431830C018211D124B984757
:1022F000F368E26ADB6A9A4203D90123002F09D00E
:102300003B6000980D4B9847F7BD300021007C30B2
:102310001831EBE7EB62F4E73E1100009C39000056
:1023200091100000D112000063110000403C002019
:10233000C03B0020611100001B110000D9120000F9
:10234000F7B50D4B98470D4C23680193002B0FD127
:102350002500261D30000A4F1835B8472800B84719
:10236000019A0C210220074BE66225639847206002
:10237000054B9847F7BDC0468D120000703C002009
:10238000FF100000DD160000A512000010B541602E
:10239000006191420CD8D21A836901249A4205D275
:1023A000084B011D186B084B98470024200010BDF6
:1023B0009A4202D201249942F8D2024B011DD86AF6
:1023C000F1E7C046703C0020331100000C4B13B500
:1023D00098470C4B1A68002A06D18C210A484900FC
:1023E0000A4B9847002016BD343301930023402246
:1023F000009307490748084CA0470028F3D1ECE7B1
:1024000041230000703C0020BD3900009110000005
:10241000DF3900005D2500007D1B0000F7B50700D7
:10242000019328200D4B0D0016009847041E12D072
:10243000002D04D1B8210A4849000A4B98470A4B9D
:102440009847019B27602362089BA5616362E66150
:10245000201D064B98472000FEBDC0469913000082
:10246000BD3900009110000041230000151100004B
:10247000F0B587B006000D0001921F00002804D1BE
:10248000C52111484900114B9847114C23689C46BF
:10249000181E10D0019B039504930596052D0CDCA6
:1024A0000C4B98470C4D00230C9A022800D01A00C0
:1024B00003A92068A84707B0F0BD00233A0003A98C
:1024C0006046064CA047F6E7BD39000091100000B9
:1024D000703C0020612100002D1700009D180000B5
:1024E000F7B5174DEB6A1A68002A03D12A6BEA6226
:1024F0002B63F7BDDB68DC681E68271D114B3800B5
:102500009847636A20009847E369012BE9D1A369E2
:10251000F3189E4206D239006360E86A0A4B2461D0
:102520009847DEE70021200000910B003200074CA5
:10253000A0470028D5D106490648074BF0E7C0461A
:10254000703C002061110000331100007124000074
:102550004E030000BD39000091100000F0B589B0B5
:102560000027594CE36A1A680392BA4201D0DB682B
:102570001F68564B9847564B984700230293A36B0E
:102580000500984203D2534B984701230293029BC4
:10259000A563514E002B64D1039B002B27D00298DA
:1025A000AF4228D8B047E36ADB68DE684B4B301D8A
:1025B0009847F369012B16D1B3692A00F918300046
:1025C0003B00474DA84700280DD0029B3A000093DE
:1025D00019003000434DA847002804D1F221424899
:1025E0004900424B98473000736A98470DE0236BCF
:1025F0001A68504250410200791B20683C4B9847B2
:10260000B047002801D13B4B9847002205A920681C
:10261000394B98470028A3D0059B002BF5DB079D7D
:102620006B69002B02D0281D2C4B9847284B9847EC
:10263000A36B0600984201D2264B9847059BA663E0
:10264000092BE2D8012284279A40BF0013001740CB
:1026500029D1C722134206D19B06D6D52800274B85
:10266000C3E7B047D1E7069BAA6928009918320052
:102670001B4E0293B0470028C7D06B6A28009847CA
:10268000EB69012BC1D1AB69069A2800D2180097DB
:102690003B003900134DA8470028B6D1184912480D
:1026A000124B9847B1E7069BAB61002B03D115494C
:1026B0000D480E4B9847AB693200F11828003300E3
:1026C000074DA847A1E7C046703C0020511D0000FF
:1026D000611D0000E1240000251E000061110000C2
:1026E0008D23000071240000BD390000911000000E
:1026F000B11A00007512000065190000BD14000039
:10270000E7020000FA020000F7B50D00431C15D0E7
:102710004709C6B21A4B01A89847FF231F243B4024
:102720003440DB016A1C0AD10122E418154BE4187D
:1027300023789343237001A8134B9847F7BD822257
:102740000120D2059B181A1940321178C440014368
:1027500011700F22064208D01C193034237815401E
:102760002D011A402A432270E5E71C1930342378E2
:10277000290093431D0011400D432570DBE7C0463F
:1027800029070000400000413707000073B50C0026
:10279000431C0ED01F25460905401D4B01A8984734
:1027A000012C1AD0002C05D0022C23D001A8194BE3
:1027B000984773BD01238222AB40F0B2D205C0011D
:1027C000801802224360401940300378934303701D
:1027D0000378921893430370E8E78223AC40F0B289
:1027E000DB05C001C0180223446040194030027864
:1027F0001343F0E701238222AB40F0B2C001D205BF
:1028000080188360401940300378A343E3E7C04653
:10281000290700003707000073B50E00431C13D0D2
:102820001F25440905400A4B01A89847FF231C4077
:1028300082230122E401DB05AA40E418002E04D023
:10284000A26101A8034B984773BD6261F9E7C046D6
:1028500029070000370700001F2210B5FF24430995
:10286000234010401E3A8240DB01002904D082211F
:10287000C9055B189A6110BD8221C9055B185A61B0
:10288000F9E71F228221430910401E3A8240DBB241
:10289000C905DB015B189A6170471F228221430939
:1028A00010401E3A8240DBB2C905DB015B185A6159
:1028B0007047000073B50E00431C0ED01F2544095D
:1028C00005401A4B01A89847012E11D0002E05D0C3
:1028D000022E1BD001A8164B984773BD0422E4B208
:1028E000144BE4012D19ED182B7893432B70F1E76D
:1028F00082230422AE40E4B2DB05E401E41863194C
:10290000403319780A431A70A661E3E78223042250
:10291000E4B2DB05E401E4186319403319780A4393
:102920001A700123AB406361D4E7C0462907000059
:10293000370700004000004110B50023421C13D0AF
:102940001F218223012401404009C2B2DB05D201CC
:10295000D2188C40511840310B789B0706D5136A6A
:102960002340581E8341DBB2180010BD1369F7E7FE
:102970001F224309024082200121DBB2DB01C00596
:102980001B1891409A1840321278920705D5186AA0
:102990000840431E9841C0B270471869F8E700002C
:1029A000124A030090420CD012D8114A904208D02B
:1029B00009D8104A0220934204D00F4A00209342C3
:1029C00000D1042070470D4A9042FAD00C4AF5E736
:1029D0000C4A9042F5D004D80B4A9042F1D00B4AF1
:1029E000ECE70B4A9042ECD00A4AE7E7003000429D
:1029F000000800420028004000040042000C004291
:102A000000100042003C0042003400420038004206
:102A100000400042005C00421F4A030090422BD05D
:102A200014D81E4A0420934228D008D81C4A934246
:102A30002ED01C4A0238934220D000201EE01A4AB1
:102A4000082093421AD0194A0018F4E7184A904215
:102A500018D008D8174A904211D0174A9042ECD1AA
:102A60008020C0010AE0154A90420ED0144A9042DC
:102A7000E3D18020000401E08020400170478020E5
:102A80008001FBE780200002F8E780204002F5E7A4
:102A90008020C000F2E7C04600300042000800423B
:102AA0000028004000040042000C004200100042D8
:102AB000003C004200340042003800420040004226
:102AC000005C004237B5134B04009847124B0500D9
:102AD00020009847114B040001A89847681E03285E
:102AE00007D80F4B00F02CF902090D111A69144395
:102AF0001C6101A80B4B984737BD5A6914435C61B0
:102B0000F7E79A6914439C61F3E7DA691443DC61DF
:102B1000EFE7C046A1290000192A0000290700009C
:102B20000008004037070000164A03001E209342A9
:102B30000ED015D8144A0A38934209D009D8134A3E
:102B40001238934204D0124A1130934200D0002030
:102B50007047104A15209342FAD00F4A0130F4E72B
:102B60000E4A1F209342F3D005D80D4A01389342F4
:102B7000EED00C4AF2E70C4A20209342E8D00B4AF0
:102B80000630E2E700300042000800420028004022
:102B900000040042000C004200100042003C0042D1
:102BA000003400420038004200400042005C004215
:102BB00037B5124B0D009847114B040001A89847F8
:102BC000082D17D82A0080210E4B08329200D058C9
:102BD00049000143D150282C0CD820000F2220306E
:102BE0008000C158154091432943C150C15831322A
:102BF0000A43C25001A8044B984737BD292B000057
:102C000029070000001C0040370700000123834013
:102C1000024A51690B4353617047C0460028004087
:102C200070B5002401260A4BE5B25B699BB22341D3
:102C3000334209D0074AA300D358002B01D0280003
:102C400098472800044B98470134102CEBD170BDF5
:102C500000280040243D00200D2C0000124A0300F3
:102C6000142093420BD012D8104A0A38934206D04F
:102C700006D80F4A0138934201D00E2040427047D7
:102C80000C4A0B209342FAD00B4A0130F3E70B4A6F
:102C900016209342F3D001D8094AEBE7094A1720DE
:102CA0009342ECD0084AF0E70030004200080042AE
:102CB00000040042000C00420010004200380042B4
:102CC00000340042003C00420040004210B5054B79
:102CD0009847002805DB1F2318401E3B8340024A0B
:102CE000136010BD5D2C000000E100E010B5064B44
:102CF0009847002807DB1F23C02218401E3B834053
:102D0000024952008B5010BD5D2C000000E100E034
:102D10000222074B19780A431A70012219790A43D3
:102D20000F211A715A788A435A7000221A73704719
:102D30000020004010B5014B984710BD112D000038
:102D400002B4714649084900095C49008E4402BC3E
:102D50007047C0469E2110B5C905041C00F0ACFCAC
:102D6000002803D1201C00F011FC10BD9E21201C66
:102D7000C90500F06FFA00F009FC80231B069C4691
:102D80006044F2E7F0B557464E46DE464546E0B5AC
:102D900044024300C60F83B00F1C640A1B0EB246E8
:102DA00053D0FF2B27D08022E400D20414437F228B
:102DB000524290469844002399469B467D027800F3
:102DC000FB0F6D0A000E009324D0FF2846D080230D
:102DD0000021ED00DB041D437F384746381A4F467B
:102DE0000F43BF00B9463300009A874F53404A460D
:102DF000BA5801939746002C4ED108239946F733D1
:102E00009846FD3B9B467D027800FB0F6D0A000E45
:102E10000093DAD1002D26D1002001213300009A41
:102E20007A4F53404246101A4A460A439200BA5813
:102E30001D009746009B2C009A468B465B46022B52
:102E400031D15346FF21002438E0002C17D1042350
:102E500099460023984601339B46AFE7FF20002D9B
:102E60000BD10221DAE7280000F030FC431F9D401F
:102E700076235B42181A0021AFE70321ADE720005B
:102E800000F024FC431F9C4076235B421B1A9846AB
:102E9000002399469B4691E70C239946F3339846C5
:102EA000FC3B9B468AE7032B00D1A5E05546012B4E
:102EB00000D081E00123002100242B406402C905D9
:102EC000600ADB070843184303B03CBC90469946B0
:102ED000A246AB46F0BD80240023E403FF21EDE7CA
:102EE000FF210024EAE70123591A1B2966DD019A14
:102EF000134000210024E1E78023DB031C4238D08B
:102F00001D4251D01C436402640A3300FF21D5E7FF
:102F100063016C01A3423BD21B260021013801252D
:102F20001F0049005B00002F01DB9C4201D81B1BE6
:102F30002943013E002EF3D11C00631E9C410C432B
:102F400001007F310029CEDD630704D00F23234029
:102F5000042B00D00434230103D501002C4B803115
:102F60001C40FE290DDD0123019AFF21134000249E
:102F7000A4E78023DB031C436402640A3300FF21BF
:102F80009CE70123019AA401640AC9B2134095E7A2
:102F90001B1B1A260121C2E7009B8B469A46002480
:102FA0004CE76302E5D500258024E4032C4364024A
:102FB000640A009BFF2181E70195C1E723002020DF
:102FC000CB40411A8C40611E8C411C43630704D0E6
:102FD0000F232340042B00D00434630105D50123C3
:102FE000019A01211340002468E70123019AA401FA
:102FF000640A1340002161E78023DB031C43640261
:10300000640A5346FF2159E7E8390000283A0000D6
:10301000FFFFFFF7F8B557464E464546DE46E0B59A
:103020004702460088467F0A360EC40F002E47D05E
:10303000FF2E24D0FB008027FF041F430023994666
:103040009A467F3E43465D025800DB0F6D0A000E34
:10305000984643D0FF283BD0EB0080250022ED04AA
:103060001D437F383618731C41469B464B466140D2
:1030700013430F2B64D875489B00C3589F46002FFD
:1030800042D108239946063BFF269A46DAE7414695
:10309000022A28D0032A00D1CEE0012A00D0ACE0D9
:1030A000114000200022CCB24002D205400AE407C1
:1030B000104320433CBC90469946A246AB46F8BD1F
:1030C000002F15D104239946033B00269A46B9E701
:1030D000FF200222002DC5D00322C3E7002D19D105
:1030E00000200122BEE70124FF220C400020DBE784
:1030F000380000F0EBFA7626431F9F40002376420B
:10310000361A99469A469DE70C239946093BFF26B5
:103110009A4697E7280000F0D9FA431F9D4076238E
:103120005B42181A00229DE780200024C003FF2282
:10313000BAE73D005246ABE73D0021005246A7E703
:103140003B0C9C462A04120C2B0C1400604665466E
:103150003F043F0C7C4342435D437B43270C9B1859
:10316000FF18BA4203D980235B029C4665442404BD
:103170003A04240C121993015C1EA3413F0C920ED9
:103180007D191A43AD0115432B0104D501235E4679
:103190006A081D40154332007F32002A25DD6B0787
:1031A00004D00F232B40042B00D004352B0103D572
:1031B0003200274B80321D40FE2A94DC0124A801F6
:1031C000400AD2B20C406FE78020C003074207D00C
:1031D000054205D128434002400A4446FF2263E7E6
:1031E00038434002400AFF225EE70124A31A1B2B4A
:1031F00005DD0C400022002056E75E46CBE72A00A2
:103200002020DA40C31A9D402B005D1EAB411343C2
:103210005A0704D00F221A40042A00D004335A015E
:1032200004D5012401220C4000203DE701249B012C
:10323000580A0C40002237E780200124C0032843AD
:103240004002400A0C40FF222EE7C046683A0000C8
:10325000FFFFFFF7F0B54F46D64646464400C0B5DF
:10326000C20F47024802400A844666467B0A48006D
:10327000C90F9A46240E1500DB00000E8946F600A1
:10328000FF2800D18FE001214F464F403900914285
:1032900066D0221A002A00DC9DE000283DD1002ED5
:1032A00000D18BE0511E002900D0B5E001249B1B0A
:1032B0005A0144D59B019F09380000F007FA0538F0
:1032C0008740844200DD96E0041B3A002020013450
:1032D000E240041BA7403B005F1EBB410024134398
:1032E0005A0704D00F221A40042A00D004335A018E
:1032F00027D50134FF2C00D179E001229B015B0A24
:10330000E4B22A405B02E405580AD2072043104386
:103310001CBC90469946A246F0BDFF2CE0D080210F
:10332000C9040E431B2A7BDC31002020D140821AC5
:103330009640721E96410E439B1B5A01BAD45A07FF
:10334000D0D10122DF082A40FF2C33D1002F00D139
:10335000A8E08023DB033B435B025B0AFF24D1E749
:10336000211A00294CDD00282AD0FF2CB8D080205B
:10337000C00406431B2900DDAFE030002027C84011
:10338000791A8E40711E8E4106439B195901D6D57C
:103390000134FF2C00D185E001227A491A405B08F4
:1033A0000B4013439CE7002E00D070E76BE73B1EF9
:1033B000C5D100227B025B0AE4B2A3E714008FE7C9
:1033C000002E4DD0481E002857D19B1901245A01C8
:1033D000B5D50224E0E7002A25D1621CD2B2012A29
:1033E00072DD9F1B7A0135D5F71A0D0064E70122C3
:1033F00000232A4086E73B00634A241A13406FE704
:1034000000296CD1611CC8B201284EDDFF2949D0CA
:103410009B195B080C0063E7FF2A41D00A0081E793
:1034200001269B1B89E7002C1CD0FF2821D080247B
:10343000E404524223431B2A00DD96E01C002025B1
:10344000D440AA1A93405A1E93412343F31A04000E
:103450000D002DE7002F00D02EE700220024A9E761
:103460000C003DE7002B58D0D243002AEED0FF28B5
:10347000E1D13300FF240D0032E7FF2910D0010015
:1034800078E7002B6ED0FF24002E00D128E78022A1
:103490005146D203114203D06146114200D133009C
:1034A000FF241DE7FF2400232CE7002CE9D1002B8B
:1034B00063D0002E00D113E79B195A0100D43EE7D8
:1034C000314A0C0013400BE7002C1ED1002B2FD1EA
:1034D000002E4FD033000D0002E7012655E7002CE7
:1034E0001FD1002B43D0C94300290BD0FF2839D06E
:1034F0001B2944DC1C002027CC40791A8B40591E24
:103500008B4123439B19040040E7002B1AD1002E66
:1035100024D180270022FF031BE7330004000D00A5
:10352000DEE6FF281ED08024E40449422343DFE77F
:10353000002E00D1D4E69F1B7A0100D437E7F31A9E
:103540000D00CDE6FF24002E00D1C9E680225046B2
:10355000D2031042A4D060461042A1D133000D0026
:10356000FF24BDE63300FF24BAE601236EE73300F3
:103570000400B5E6002700221CE73300B0E6012373
:10358000C0E7C046FFFFFF7DFFFFFFFB4102430096
:10359000C20F490A1B0E00207E2B0DDD9D2B0CDC7B
:1035A000802000040143952B0ADC9620C31AD940E1
:1035B0004842002A00D108007047034BD018FBE7AF
:1035C000963B9940F4E7C046FFFFFF7F10B5041E0D
:1035D00027D000F07BF89E231B1A962B0ADC96223C
:1035E000D21A94406402640ADBB26402DB05600A0A
:1035F000184310BD992B17DC9922D21A002A27DD17
:1036000094402200134C1440510704D00F210A406B
:10361000042A00D00434620112D4A401640ADBB28B
:10362000E3E700230024E0E7B9222100D21A914009
:103630000A00511E8A410521091ACC401443DBE7D8
:10364000044B1C409F23A4011B1A640ADBB2CCE785
:103650002200D7E7FFFFFFFB8446081C6146FFE717
:103660001FB500F0B7F8002801D40021C8421FBDE3
:1036700010B500F049F84042013010BD10B500F01F
:10368000A9F8002801DB002010BD012010BDC046B4
:1036900010B500F09FF8002801DD002010BD0120CA
:1036A00010BDC04610B500F055F8002801DC002020
:1036B00010BD012010BDC04610B500F04BF8002829
:1036C00001DA002010BD012010BDC0461C210123DD
:1036D0001B04984201D3000C10391B0A984201D3F5
:1036E000000A08391B09984201D30009043902A2D3
:1036F000105C40187047C04604030202010101013A
:10370000000000000000000070B5420045024E02BB
:103710004C00C30F6D0A120E760A240EC90F012049
:10372000FF2A06D0FF2C03D0A24201D1B54206D019
:1037300070BD002DFCD1FF2CFAD1002EF8D18B42A8
:1037400006D00120002AF3D12800451EA841EFE74A
:103750000020EDE7F0B5420045024C02C30F4800DF
:103760006D0A120E640A000EC90FFF2A1ED0FF2830
:1037700021D0002A0AD16E426E41F6B200280FD144
:10378000002C0DD10020002D09D005E0002801D12A
:10379000002C01D08B4211D0012158420843F0BDCA
:1037A000002EF7D0012001390843F8E7002DDED0C4
:1037B00002204042F3E7002CDBD0F9E78242EBDC49
:1037C00004DBA542E8D80020A542E8D20121581E1A
:1037D0000843E4E7F0B542004D024C004602760A89
:1037E000120EC30F6D0A240EC90FFF2A16D0FF2C2C
:1037F00018D0002A0AD170427041C0B2002C15D0F6
:10380000002805D0012001390843F0BD002C13D059
:10381000994214D001205B421843F6E70220002EA3
:10382000F3D1E4E70220002DEFD1E2E7002DE7D14C
:103830000020002EE9D0EDE7002DE9D1EAE7A24211
:1038400006DCDFDBAE4203D80020AE42DAD3DCE791
:10385000012049420843D8E770B500260C4D0D4CB5
:10386000641BA410A64209D1002600F01DF90A4DE0
:103870000A4C641BA410A64205D170BDB300EB58DE
:1038800098470136EEE7B300EB5898470136F2E768
:10389000B43A0000B43A0000B43A0000B83A00006C
:1038A000002310B59A4200D110BDCC5CC454013342
:1038B000F8E703008218934200D170471970013372
:1038C000F9E7636F6D6D7300436F6E74726F6C54C4
:1038D000696D657200426C696E6B54696D00636F4F
:1038E0006E74726F6C000001FFFF000102030001A3
:1038F0000203FFFF020300010203FFFF00010203B6
:10390000FFFFFFFF020300010203030000022E2E4F
:103910002F73616D6C6962732F4672656552544FE7
:10392000532F52544F532F706F727461626C652F16
:103930004743432F41524D5F434D302F706F727498
:103940002E63002E2E2F73616D6C6962732F467289
:10395000656552544F532F52544F532F706F7274EA
:1039600061626C652F4D656D4D616E672F68656195
:10397000705F342E63002E2E2F73616D6C6962733D
:103980002F4672656552544F532F52544F532F7127
:10399000756575652E630049444C45002E2E2F73C6
:1039A000616D6C6962732F4672656552544F532F77
:1039B00052544F532F7461736B732E63002E2E2F4E
:1039C00073616D6C6962732F4672656552544F5313
:1039D0002F52544F532F74696D6572732E630054C8
:1039E0006D72205376630000102F0000E02E00005F
:1039F000F22E0000342E0000F22E0000D62E000021
:103A0000F22E0000342E0000E02E0000E02E000018
:103A1000D62E0000342E00003C2E00003C2E00006C
:103A20003C2E0000F82E0000E02E0000E02E0000EA
:103A3000B42E0000982F0000B42E0000D62E0000F7
:103A4000B42E0000982F0000E02E0000E02E0000B1
:103A5000D62E0000982F00003C2E00003C2E0000C7
:103A60003C2E0000A22F00004031000090300000EA
:103A7000903000008E300000323100003231000002
:103A8000283100008E300000323100002831000063
:103A9000323100008E300000383100003831000033
:103AA00038310000C8310000F8B5C046F8BC08BC89
:103AB0009E467047E5000000F8B5C046F8BC08BC5B
:083AC0009E467047BD000000A6
:103AC800010000000010004211000000100000007A
:103AD80012000000030011000F00000001000000A8
:103AE80000C2010000000101050000000100000003
:103AF80009000000080000000B0000000A00000098
:103B080000000000070000000A0000000600000096
:103B180005000000000000000B0000000800000085
:103B28000A0000000900000000000000000000007A
:103B3800000000000000000000000000000000007D
:103B4800000000000000000001000000000000006C
:103B5800000000000000000000000000000000005D
:103B6800000000000000000000000000000000004D
:103B7800000000000000000000000000000000003D
:103B8800010000000000000000000000000000002C
:103B9800000000000000000000000000000C0042CF
:103BA800080000000B000000090000000A000000E7
:103BB8000300080050C30000000400420400000095
:103BC80006000000070000000500000003000500D3
:103BD800A0860100000C0042080000000A00000056
:103BE8000B0000000900000003000800A086010087
:083BF80001000000AAAAAAAA1C
:00000001FF
